{
    "contractName": "AaronCoin",
    "abi": [
        {
            "anonymous": false,
            "inputs": [
                {
                    "indexed": true,
                    "internalType": "address",
                    "name": "_owner",
                    "type": "address"
                },
                {
                    "indexed": true,
                    "internalType": "address",
                    "name": "_spender",
                    "type": "address"
                },
                {
                    "indexed": false,
                    "internalType": "uint256",
                    "name": "_value",
                    "type": "uint256"
                }
            ],
            "name": "Approval",
            "type": "event"
        },
        {
            "anonymous": false,
            "inputs": [
                {
                    "indexed": true,
                    "internalType": "address",
                    "name": "_from",
                    "type": "address"
                },
                {
                    "indexed": true,
                    "internalType": "address",
                    "name": "_to",
                    "type": "address"
                },
                {
                    "indexed": false,
                    "internalType": "uint256",
                    "name": "_value",
                    "type": "uint256"
                }
            ],
            "name": "Transfer",
            "type": "event"
        },
        {
            "inputs": [
                {
                    "internalType": "address",
                    "name": "_owner",
                    "type": "address"
                },
                {
                    "internalType": "address",
                    "name": "_spender",
                    "type": "address"
                }
            ],
            "name": "allowance",
            "outputs": [
                {
                    "internalType": "uint256",
                    "name": "remaining",
                    "type": "uint256"
                }
            ],
            "stateMutability": "view",
            "type": "function"
        },
        {
            "inputs": [
                {
                    "internalType": "address",
                    "name": "_spender",
                    "type": "address"
                },
                {
                    "internalType": "uint256",
                    "name": "_value",
                    "type": "uint256"
                }
            ],
            "name": "approve",
            "outputs": [
                {
                    "internalType": "bool",
                    "name": "success",
                    "type": "bool"
                }
            ],
            "stateMutability": "nonpayable",
            "type": "function"
        },
        {
            "inputs": [
                {
                    "internalType": "address",
                    "name": "_owner",
                    "type": "address"
                }
            ],
            "name": "balanceOf",
            "outputs": [
                {
                    "internalType": "uint256",
                    "name": "balance",
                    "type": "uint256"
                }
            ],
            "stateMutability": "view",
            "type": "function"
        },
        {
            "inputs": [],
            "name": "decimals",
            "outputs": [
                {
                    "internalType": "uint8",
                    "name": "",
                    "type": "uint8"
                }
            ],
            "stateMutability": "view",
            "type": "function"
        },
        {
            "inputs": [],
            "name": "lottery",
            "outputs": [],
            "stateMutability": "payable",
            "type": "function"
        },
        {
            "inputs": [],
            "name": "name",
            "outputs": [
                {
                    "internalType": "string",
                    "name": "",
                    "type": "string"
                }
            ],
            "stateMutability": "pure",
            "type": "function"
        },
        {
            "inputs": [],
            "name": "symbol",
            "outputs": [
                {
                    "internalType": "string",
                    "name": "",
                    "type": "string"
                }
            ],
            "stateMutability": "pure",
            "type": "function"
        },
        {
            "inputs": [],
            "name": "totalSupply",
            "outputs": [
                {
                    "internalType": "uint256",
                    "name": "",
                    "type": "uint256"
                }
            ],
            "stateMutability": "view",
            "type": "function"
        },
        {
            "inputs": [
                {
                    "internalType": "address",
                    "name": "_to",
                    "type": "address"
                },
                {
                    "internalType": "uint256",
                    "name": "_value",
                    "type": "uint256"
                }
            ],
            "name": "transfer",
            "outputs": [
                {
                    "internalType": "bool",
                    "name": "success",
                    "type": "bool"
                }
            ],
            "stateMutability": "nonpayable",
            "type": "function"
        },
        {
            "inputs": [
                {
                    "internalType": "address",
                    "name": "_from",
                    "type": "address"
                },
                {
                    "internalType": "address",
                    "name": "_to",
                    "type": "address"
                },
                {
                    "internalType": "uint256",
                    "name": "_value",
                    "type": "uint256"
                }
            ],
            "name": "transferFrom",
            "outputs": [
                {
                    "internalType": "bool",
                    "name": "success",
                    "type": "bool"
                }
            ],
            "stateMutability": "nonpayable",
            "type": "function"
        }
    ],
    "bytecode": "60806040526000805460ff191660089081178255600a60028181556003849055612710600455426005556103e8600655600755905560095534801561004357600080fd5b50610871806100536000396000f3fe6080604052600436106100915760003560e01c806370a082311161005957806370a082311461020257806395d89b4114610235578063a9059cbb1461024a578063ba13a57214610283578063dd62ed3e1461028d57610091565b806306fdde0314610096578063095ea7b31461012057806318160ddd1461016d57806323b872dd14610194578063313ce567146101d7575b600080fd5b3480156100a257600080fd5b506100ab6102c8565b6040805160208082528351818301528351919283929083019185019080838360005b838110156100e55781810151838201526020016100cd565b50505050905090810190601f1680156101125780820380516001836020036101000a031916815260200191505b509250505060405180910390f35b34801561012c57600080fd5b506101596004803603604081101561014357600080fd5b506001600160a01b0381351690602001356102eb565b604080519115158252519081900360200190f35b34801561017957600080fd5b50610182610392565b60408051918252519081900360200190f35b3480156101a057600080fd5b50610159600480360360608110156101b757600080fd5b506001600160a01b03813581169160208101359091169060400135610398565b3480156101e357600080fd5b506101ec610528565b6040805160ff9092168252519081900360200190f35b34801561020e57600080fd5b506101826004803603602081101561022557600080fd5b50356001600160a01b0316610531565b34801561024157600080fd5b506100ab61054f565b34801561025657600080fd5b506101596004803603604081101561026d57600080fd5b506001600160a01b03813516906020013561056a565b61028b61065a565b005b34801561029957600080fd5b50610182600480360360408110156102b057600080fd5b506001600160a01b0381358116916020013516610753565b60408051808201909152600981526820b0b937b721b7b4b760b91b602082015290565b60006001600160a01b03831615801590610303575060015b80156103215750336000908152600b60205260409020600101548211155b61032a57600080fd5b336000818152600b602090815260408083206001600160a01b03881680855290835292819020869055805186815290519293927f8c5be1e5ebec7d5bd14f71427d1e84f3dd0314c0f7b2291e5b200ac8c7c3b925929181900390910190a35060015b92915050565b60015490565b60006001600160a01b038416158015906103ba57506001600160a01b03831615155b80156103c4575060015b6103cd57600080fd5b6001600160a01b0384166000908152600b6020526040902060010154821180159061041b57506001600160a01b0384166000908152600b602090815260408083203384529091529020548211155b61042457600080fd5b6001600160a01b0384166000908152600b602052604090206001015461044a908361077e565b6001600160a01b038086166000908152600b6020526040808220600190810194909455918616815220015461047f9083610790565b6001600160a01b038085166000908152600b6020908152604080832060010194909455918716815282812033825290915220546104bc908361077e565b6001600160a01b038086166000908152600b60209081526040808320338085529083529281902094909455835186815293519287169391927fddf252ad1be2c89b69c2b068fc378daa952ba7f163c4a11628f55a4df523b3ef9281900390910190a35060019392505050565b60005460ff1690565b6001600160a01b03166000908152600b602052604090206001015490565b6040805180820190915260018152600160fe1b602082015290565b60006001600160a01b03831615801590610582575060015b80156105a05750336000908152600b60205260409020600101548211155b6105a957600080fd5b336000908152600b60205260409020600101546105c6908361077e565b336000908152600b60205260408082206001908101939093556001600160a01b0386168252902001546105f99083610790565b6001600160a01b0384166000818152600b60209081526040918290206001019390935580518581529051919233927fddf252ad1be2c89b69c2b068fc378daa952ba7f163c4a11628f55a4df523b3ef9281900390910190a350600192915050565b34670de0b6b3a76400001461066e57600080fd5b336000908152600b6020526040902060020154421161068c57600080fd5b60055460065461069d914203610790565b600681905560045410156106b2576004546006555b60006106bf6006546107a6565b90506106d860075460065461080290919063ffffffff16565b6006556001546106e89082610790565b6001908155336000908152600b6020526040902001546107089082610790565b336000908152600b602052604090206001810191909155600381015442810160029092019190915560085461073d9190610817565b336000908152600b602052604090206003015550565b6001600160a01b039182166000908152600b6020908152604080832093909416825291909152205490565b60008282111561078a57fe5b50900390565b60008282018381101561079f57fe5b9392505050565b6003546000906107b7906001610790565b600381905560408051426020808301919091523360601b8284015260548083019490945282518083039094018452607490910190915281519101208290816107fb57fe5b0692915050565b60008082848161080e57fe5b04949350505050565b6000826108265750600061038c565b8282028284828161083357fe5b041461079f57fefea2646970667358221220817df7e361a8f9b0d929e904aa3c83f33ee51e9aff099ca46f13e07a0def34e964736f6c63430007040033",
    "sourcePath": "/Users/chiawei/Documents/blockchain/AaronCoin_ERC20/aaroncoin.sol",
    "compiler": {
        "name": "solc",
        "version": "0.7.4+commit.3f05b770"
    },
    "functionHashes": {
        "allowance(address,address)": "dd62ed3e",
        "approve(address,uint256)": "095ea7b3",
        "balanceOf(address)": "70a08231",
        "decimals()": "313ce567",
        "lottery()": "ba13a572",
        "name()": "06fdde03",
        "symbol()": "95d89b41",
        "totalSupply()": "18160ddd",
        "transfer(address,uint256)": "a9059cbb",
        "transferFrom(address,address,uint256)": "23b872dd"
    },
    "gasEstimates": {
        "creation": {
            "codeDepositCost": "432200",
            "executionCost": "151345",
            "totalCost": "583545"
        },
        "external": {
            "allowance(address,address)": "1338",
            "approve(address,uint256)": "23281",
            "balanceOf(address)": "1148",
            "decimals()": "1102",
            "lottery()": "infinite",
            "name()": "infinite",
            "symbol()": "infinite",
            "totalSupply()": "1043",
            "transfer(address,uint256)": "45238",
            "transferFrom(address,address,uint256)": "infinite"
        },
        "internal": {
            "randMod(uint256)": "infinite"
        }
    }
}